:020000040800F2
:100000000000032071320008BD320008BD32000834
:10001000BD320008BD320008BD32000800000000FB
:10002000000000000000000000000000BD290008E2
:10003000BD32000800000000812A0008D92A00080B
:10004000BD320008BD320008BD320008BD320008D4
:10005000BD320008BD320008BD320008BD320008C4
:10006000BD320008BD320008BD320008BD320008B4
:10007000BD320008BD320008BD320008BD320008A4
:10008000BD320008BD320008BD320008BD32000894
:10009000BD320008BD320008BD320008BD32000884
:1000A000BD320008BD320008BD320008BD32000874
:1000B000D52C0008BD320008BD320008BD32000852
:1000C000BD320008BD320008BD320008BD32000854
:1000D000BD32000831310008BD320008BD320008D1
:1000E000BD320008BD320008BD320008BD32000834
:1000F000BD320008BD320008BD320008BD32000824
:10010000BD320008BD320008BD320008BD32000813
:10011000BD320008BD320008BD320008BD32000803
:10012000BD320008BD320008BD320008BD320008F3
:10013000BD320008BD320008BD320008BD320008E3
:10014000BD320008BD320008BD320008BD320008D3
:10015000BD320008BD320008BD320008BD320008C3
:10016000BD320008BD320008BD320008BD320008B3
:10017000BD320008BD320008BD320008BD320008A3
:10018000BD320008BD320008BD320008BD32000893
:10019000BD320008BD320008BD320008BD32000883
:0C01A0006D310008BD320008BD320008BF
:1001B00058410208000000202009002020090020EA
:1001C00080500120844641EA000313F003036DD1FF
:1001D000403A41D351F8043B40F8043B51F8043B0A
:1001E00040F8043B51F8043B40F8043B51F8043B11
:1001F00040F8043B51F8043B40F8043B51F8043B01
:1002000040F8043B51F8043B40F8043B51F8043BF0
:1002100040F8043B51F8043B40F8043B51F8043BE0
:1002200040F8043B51F8043B40F8043B51F8043BD0
:1002300040F8043B51F8043B40F8043B51F8043BC0
:1002400040F8043B51F8043B40F8043B51F8043BB0
:1002500040F8043B403ABDD2303211D351F8043B50
:1002600040F8043B51F8043B40F8043B51F8043B90
:1002700040F8043B51F8043B40F8043B103AEDD2FF
:100280000C3205D351F8043B40F8043B043AF9D250
:10029000043208D0D2071CBF11F8013B00F8013B23
:1002A00001D30B8803806046704700BF082A13D330
:1002B0008B078DD010F003038AD0C3F10403D21A48
:1002C000DB071CBF11F8013B00F8013B80D331F87C
:1002D000023B20F8023B7BE7043AD9D3013A11F8FC
:1002E000013B00F8013BF9D20B7803704B78437067
:1002F0008B7883706046704740EA010C1CF0070F52
:1003000023D1BDF1100DCDE90245CDE900676FF0B5
:1003100000064FF0000700BFF0E80223F1E80245B5
:10032000A24282FA46FCA7FA86FC08BFBCF1000F85
:1003300040F0D780AB4283FA46FCA7FA86FC08BFA0
:10034000BCF1000F40F0CA80E6E710F0030C21D0AA
:1003500020F0030050F8042B5FEACC7C08D00FD2C9
:1003600011F801CB5FFA92F3B3EB0C0C10D17BB117
:1003700011F801CB5FFAA2F3B3EB0C0C08D13BB13F
:1003800011F801CB5FFAB2F3B3EB0C0C00D10BB94F
:1003900060467047BDF1100DCDE90245CDE900671B
:1003A0006FF000064FF0000711F0030C2DD110F094
:1003B000040F0DD050F8042B51F8044BA24282FADE
:1003C00046FCA7FA86FC08BFBCF1000F40F089800C
:1003D00011F0040F9FD051F8045B00BFF0E8022336
:1003E000AA4282FA46FCA7FA86FC08BFBCF1000FBD
:1003F00071D1F1E80245A34283FA46FCA7FA86FCD4
:1004000008BFBCF1000F63D1E8E721F00301BCF1A4
:10041000020F1ED03BDA51F8045B00BF50F8043BDA
:100420004FEA152583FA46FCA7FA86FCB7EB0C2F9A
:1004300003EA162208BFAA424DD151F8045BBCF171
:10044000000F82EA03034FEA056208BF93423CD1E2
:10045000E4E751F8045B00BF50F8043B4FEA154550
:1004600083FA46FCA7FA86FCB7EB0C4F03EA164268
:1004700008BFAA422FD151F8045BBCF1000F82EAF9
:1004800003034FEA054208BF93421ED1E4E751F847
:10049000045B00BF50F8043B4FEA156583FA46FC45
:1004A000A7FA86FCB7EB0C6F03EA166208BFAA42F4
:1004B00011D151F8045BBCF1000F82EA03034FEA4B
:1004C000052208BF934200D1E4E719BA12BA0AE044
:1004D00019BA22BA07E011BA2ABA04E019BA2ABA3C
:1004E00001E011BA22BA9CFA8CF0DDE90067DDE97F
:1004F00002451DF1100D38B1B0FA80F0C0F11800BE
:1005000021FA00F122FA00F20120914298BF8041C5
:10051000704700BF81F0004102E000BF83F000435C
:1005200030B54FEA41044FEA430594EA050F08BF8E
:1005300090EA020F1FBF54EA000C55EA020C7FEA52
:10054000645C7FEA655C00F0E2804FEA5454D4EBCF
:100550005555B8BF6D420CDD2C4480EA020281EA99
:10056000030382EA000083EA010180EA020281EAD1
:100570000303362D88BF30BD11F0004F4FEA013123
:100580004FF4801C4CEA113102D0404261EB410132
:1005900013F0004F4FEA03334CEA133302D05242B8
:1005A00063EB430394EA050F00F0A780A4F1010474
:1005B000D5F1200E0DDB02FA0EFC22FA05F28018AE
:1005C00041F1000103FA0EF2801843FA05F3594194
:1005D0000EE0A5F120050EF1200E012A03FA0EFC13
:1005E00028BF4CF0020C43FA05F3C01851EBE3713D
:1005F00001F0004507D54FF0000EDCF1000C7EEB5A
:1006000000006EEB0101B1F5801F1BD3B1F5001F97
:100610000CD349085FEA30004FEA3C0C04F10104B6
:100620004FEA445212F5800F80F09A80BCF1004FDF
:1006300008BF5FEA500C50F1000041EB045141EA61
:10064000050130BD5FEA4C0C404141EB010111F462
:10065000801FA4F10104E9D191F0000F04BF01460D
:100660000020B1FA81F308BF2033A3F10B03B3F1EB
:1006700020020CDA0C3208DD02F1140CC2F10C027B
:1006800001FA0CF021FA02F10CE002F11402D8BFD9
:10069000C2F1200C01FA02F120FA0CFCDCBF41EAA5
:1006A0000C019040E41AA2BF01EB0451294330BD74
:1006B0006FEA04041F3C1CDA0C340EDC04F1140451
:1006C000C4F1200220FA04F001FA02F340EA030028
:1006D00021FA04F345EA030130BDC4F10C04C4F16E
:1006E000200220FA02F001FA04F340EA030029464E
:1006F00030BD21FA04F0294630BD94F0000F83F498
:10070000801306BF81F480110134013D4EE77FEA7A
:10071000645C18BF7FEA655C29D094EA050F08BFC6
:1007200090EA020F05D054EA000C04BF19461046A7
:1007300030BD91EA030F1EBF0021002030BD5FEAEB
:10074000545C05D14000494128BF41F0004130BD13
:1007500014F580043CBF01F5801130BD01F0004567
:1007600045F0FE4141F470014FF0000030BD7FEADA
:10077000645C1ABF194610467FEA655C1CBF0B46D5
:10078000024650EA013406BF52EA033591EA030FEC
:1007900041F4002130BD00BF90F0000F04BF0021E4
:1007A000704730B54FF4806404F132044FF0000517
:1007B0004FF0000150E700BF90F0000F04BF002190
:1007C000704730B54FF4806404F1320410F00045F6
:1007D00048BF40424FF000013EE700BF42004FEAF1
:1007E000E2014FEA31014FEA02701FBF12F07F436E
:1007F00093F07F4F81F06051704792F0000F14BF6B
:1008000093F07F4F704730B54FF4607401F00045AE
:1008100021F0004120E700BF50EA010208BF704705
:1008200030B54FF000050AE050EA010208BF7047FA
:1008300030B511F0004502D5404261EB41014FF463
:10084000806404F132045FEA915C3FF4DCAE4FF067
:1008500003025FEADC0C18BF03325FEADC0C18BF4E
:10086000033202EBDC02C2F1200300FA03FC20FA9F
:1008700002F001FA03FE40EA0E0021FA02F11444EC
:10088000C1E600BF70B54FF0FF0C4CF4E06C1CEA01
:1008900011541DBF1CEA135594EA0C0F95EA0C0F76
:1008A00000F0DEF82C4481EA030621EA4C5123EAE9
:1008B0004C5350EA013518BF52EA033541F4801118
:1008C00043F4801338D0A0FB02CE4FF00005E1FBCB
:1008D00002E506F00042E0FB03E54FF00006E1FB15
:1008E00003569CF0000F18BF4EF0010EA4F1FF0458
:1008F000B6F5007F64F5407404D25FEA4E0E6D4198
:1009000046EB060642EAC62141EA55514FEAC520A8
:1009100040EA5E504FEACE2EB4F1FD0C88BFBCF524
:10092000E06F1ED8BEF1004F08BF5FEA500E50F1D5
:10093000000041EB045170BD06F0004646EA01019B
:1009400040EA020081EA0301B4EB5C04C2BFD4EBCD
:100950000C0541EA045170BD41F480114FF0000EC6
:10096000013C00F3AB8014F1360FDEBF002001F034
:10097000004170BDC4F10004203C35DA0C341BDCAE
:1009800004F11404C4F1200500FA05F320FA04F080
:1009900001FA05F240EA020001F0004221F00041B4
:1009A00010EBD37021FA04F642EB06015EEA430E27
:1009B00008BF20EAD37070BDC4F10C04C4F1200557
:1009C00000FA04F320FA05F001FA04F240EA02000A
:1009D00001F0004110EBD37041F100015EEA430EDB
:1009E00008BF20EAD37070BDC4F1200500FA05F2FB
:1009F0004EEA020E20FA04F301FA05F243EA02037A
:100A000021FA04F001F0004121FA04F220EA020088
:100A100000EBD3705EEA430E08BF20EAD37070BDCE
:100A200094F0000F0FD101F00046400041EB0101AE
:100A300011F4801F08BF013CF7D041EA060195F090
:100A4000000F18BF704703F00046520043EB03034A
:100A500013F4801F08BF013DF7D043EA0603704737
:100A600094EA0C0F0CEA135518BF95EA0C0F0CD042
:100A700050EA410618BF52EA4306D1D181EA030188
:100A800001F000414FF0000070BD50EA410606BF82
:100A90001046194652EA430619D094EA0C0F02D1C7
:100AA00050EA013613D195EA0C0F05D152EA03360C
:100AB0001CBF104619460AD181EA030101F000412A
:100AC00041F0FE4141F470014FF0000070BD41F073
:100AD000FE4141F4780170BD70B54FF0FF0C4CF44D
:100AE000E06C1CEA11541DBF1CEA135594EA0C0F6C
:100AF00095EA0C0F00F0A7F8A4EB050481EA030EB9
:100B000052EA03354FEA013100F088804FEA03339F
:100B10004FF0805545EA131343EA12634FEA02226D
:100B200045EA111545EA10654FEA00260EF000412E
:100B30009D4208BF964244F1FD0404F5407402D280
:100B40005B084FEA3202B61A65EB03055B084FEA11
:100B500032024FF480104FF4002CB6EB020E75EB0E
:100B6000030E22BFB61A754640EA0C005B084FEA36
:100B70003202B6EB020E75EB030E22BFB61A7546B3
:100B800040EA5C005B084FEA3202B6EB020E75EBFE
:100B9000030E22BFB61A754640EA9C005B084FEA76
:100BA0003202B6EB020E75EB030E22BFB61A754683
:100BB00040EADC0055EA060E18D04FEA051545EA72
:100BC00016754FEA06164FEAC30343EA52734FEA1B
:100BD000C2025FEA1C1CC0D111F4801F0BD141EA94
:100BE00000014FF000004FF0004CB6E711F4801FF9
:100BF00004BF01430020B4F1FD0C88BFBCF5E06FD9
:100C00003FF6AFAEB5EB030C04BFB6EB020C5FEAE8
:100C1000500C50F1000041EB045170BD0EF0004E3D
:100C20004EEA113114EB5C04C2BFD4EB0C0541EA6F
:100C3000045170BD41F480114FF0000E013C90E66C
:100C400045EA060E8DE60CEA135594EA0C0F08BF30
:100C500095EA0C0F3FF43BAF94EA0C0F0AD150EA2F
:100C600001347FF434AF95EA0C0F7FF425AF1046C2
:100C700019462CE795EA0C0F06D152EA03353FF4EA
:100C8000FDAE1046194622E750EA410618BF52EA67
:100C900043067FF4C5AE50EA41047FF40DAF52EA3B
:100CA00043057FF4EBAE12E74FF0FF3C06E000BFD8
:100CB0004FF0010C02E000BF4FF0010C4DF804CDE5
:100CC0004FEA410C7FEA6C5C4FEA430C18BF7FEAA5
:100CD0006C5C1BD001B050EA410C0CBF52EA430CD3
:100CE00091EA030F02BF90EA020F0020704710F153
:100CF000000F91EA030F58BF994208BF90422CBFE2
:100D0000D8176FEAE37040F0010070474FEA410CDA
:100D10007FEA6C5C02D150EA013C07D14FEA430CF8
:100D20007FEA6C5CD6D152EA033CD3D05DF8040B69
:100D3000704700BF8446104662468C46194663469B
:100D400000E000BF01B5FFF7B7FF002848BF10F172
:100D5000000F01BD4DF808EDFFF7F4FF0CBF0120B7
:100D600000205DF808FB00BF4DF808EDFFF7EAFF33
:100D700034BF012000205DF808FB00BF4DF808EDEE
:100D8000FFF7E0FF94BF012000205DF808FB00BFE3
:100D90004DF808EDFFF7CEFF94BF012000205DF86D
:100DA00008FB00BF4DF808EDFFF7C4FF34BF01207A
:100DB00000205DF808FB00BF4FEA410212F5001267
:100DC00015D211D56FF47873B3EB625212D94FEA92
:100DD000C12343F0004343EA505311F0004F23FA7C
:100DE00002F018BF404270474FF00000704750EAD1
:100DF000013005D111F0004008BF6FF0004070478E
:100E00004FF00000704700BF4BB942B9002908BF3E
:100E1000002802D04FF0FF31084600F03BB882B006
:100E2000EC462DE9005000F01DF8DDF804E002B0BA
:100E30000CBC70472DE97043069E14461D46804643
:100E4000894600F029F804FB01F300FB0533A4FBFD
:100E500000451D44B8EB040469EB0505C6E90045EF
:100E6000BDE870832DE97043069E1446804689468E
:100E70001D4600F05DF900FB05F504FB0153A0FBE6
:100E800004451D44B8EB040469EB0505C6E90045BB
:100E9000BDE87083704700BF00292DE9F00FC0F254
:100EA0009F800024002BC0F29680154606460F4610
:100EB000002B3ED18A4257D9B2FA82F34BB1C3F12B
:100EC000200201FA03F720FA02F29D40174300FACC
:100ED00003F6290CB7FBF1F2330C01FB127CA8B22C
:100EE00043EA0C4700FB02F3BB4209D97F1902F128
:100EF000FF3C80F00181BB4240F2FE80023A2F4469
:100F0000FF1AB7FBF1F3B6B201FB137146EA0141D8
:100F100000FB03F0884208D9491903F1FF3780F03C
:100F2000ED80884240F2EA80023B43EA024200231D
:100F300003E08B420AD900231A461046194614B121
:100F4000404261EB4101BDE8F00F7047B3FA83F80E
:100F5000B8F1000F40F084808B4202D3824200F24D
:100F6000DE8000230122E8E712B90123B3FBF2F58A
:100F7000B5FA85F2002A39D17F1B280C1FFA85FCAF
:100F80000123B7FBF0F1320C00FB117742EA07476F
:100F90000CFB01F2BA4207D97F1901F1FF3802D2E6
:100FA000BA4200F2C1804146BF1AB7FBF0F2B6B2B6
:100FB00000FB127046EA00400CFB02FC844507D996
:100FC000401902F1FF3702D2844500F2AB803A4665
:100FD00042EA0142B1E7E443524263EB430364E770
:100FE000404261EB41014FF0FF345BE79540C2F1B5
:100FF000200327FA03F1280C26FA03F39740B1FBEC
:10100000F0F81F433B0C00FB18111FFA85FC43EA64
:1010100001410CFB08F38B4206FA02F608D9491984
:1010200008F1FF3279D28B4277D9A8F1020829441E
:10103000C91AB1FBF0F3BFB200FB131147EA014735
:101040000CFB03F2BA4207D97F1903F1FF3160D2DA
:10105000BA425ED9023B2F44BF1A43EA084390E7E5
:10106000C8F1200203FA08FC25FA02F343EA0C0C4B
:101070004FEA1C4921FA02F301FA08F720FA02F2BA
:10108000B3FBF9F1174309FB11333A0C1FFA8CFB40
:1010900042EA03430BFB01FA9A4505FA08F008D926
:1010A00013EB0C0301F1FF3235D29A4533D90239E3
:1010B0006344CAEB0303B3FBF9F209FB1233BFB27B
:1010C00047EA03470BFB02F9B94508D917EB0C07B0
:1010D00002F1FF331BD2B94519D9023A674442EAFB
:1010E0000145A5FB0001C9EB07078F424FF0000344
:1010F0000AD305D02A4620E7624601E73B4614E7BB
:1011000006FA08F68642F5D26A1E002315E71A464B
:10111000E5E70B46A0E71146CBE7904688E7434654
:1011200042460AE7023A53E702392F443CE700BF40
:101130002DE9F00F144605460E46002B43D18A4296
:1011400053D9B2FA82F757B1C7F1200620FA06F652
:1011500001FA07F302FA07F41E4300FA07F5210C1F
:10116000B6FBF1F22B0C01FB1267A0B243EA074673
:1011700000FB02F3B34209D9361902F1FF3780F0C0
:10118000F680B34240F2F380023A2644F61AB6FBE8
:10119000F1F3ADB201FB136145EA014100FB03F03D
:1011A000884208D9091903F1FF3680F0E2808842AD
:1011B00040F2DF80023B43EA024200231046194618
:1011C000BDE8F00F70478B424AD8B3FA83F6002E81
:1011D0004DD18B4202D3824200F2D68000230122FD
:1011E00010461946BDE8F00F704712B90124B4FB50
:1011F000F2F4B4FA84F2002A7CD1091B260CA7B2BF
:101200000123B1FBF6F02A0C06FB101142EA014162
:1012100007FB00F28A4207D9091900F1FF3C02D20C
:101220008A4200F2C3806046891AB1FBF6F2ADB281
:1012300006FB121145EA014507FB02F7AF4208D948
:101240002C1902F1FF3180F09680A74240F2938082
:10125000023A42EA004210461946BDE8F00F7047D4
:1012600000231A4610461946BDE8F00F7047C6F134
:10127000200522FA05F4B3401C434FEA144821FA32
:1012800005F301FA06F720FA05F5B3FBF8FC2F4346
:1012900008FB1C333D0C1FFA84FA45EA03430AFBA2
:1012A0000CF9994502FA06FB04D91B190CF1FF321F
:1012B0006DD39446C9EB0303B3FBF8F508FB153374
:1012C000BFB247EA03470AFB05F8B84504D93F19FE
:1012D00005F1FF3361D31D4645EA0C4CACFB0B23F3
:1012E000C8EB07079F424FF0000549D345D062463F
:1012F0002B4663E79440C2F1200321FA03FC260C3D
:1013000020FA03F301FA02F5BCFBF6F843EA050103
:101310000B0C06FB18CCA7B243EA0C4C07FB08F3F6
:10132000634500FA02F509D91CEB040C08F1FF3201
:101330003AD2634538D9A8F10208A444C3EB0C0C97
:10134000BCFBF6F389B206FB13CC41EA0C4107FB68
:1013500003F28A4207D9091903F1FF3022D28A42E7
:1013600020D9023B2144891A43EA084349E73A4617
:101370000CE733461FE70A466BE7B0409042B6D20F
:101380000CF1FF32002319E73346324616E7994540
:101390008FD9ACF1020C23448CE7B8459BD9023DB0
:1013A000274499E70346DEE79046C7E70238214421
:1013B0003AE700BFF0B583B003F004FB02AD0F4C79
:1013C00045F8040D0E4E0F4F03E02846012103F0AF
:1013D0003BFC0D4807F0E4FD03090C48237007F0BF
:1013E000DFFD33786FEA10106070002BEDD13868A4
:1013F0000249642202F0F6F8E7E700BF7810002007
:10140000750C00205C0A00200020014000220140F1
:101410002DE9F04F844AADF2646DC0F18000D2F83E
:101420000090FFF7C9F97CA3D3E90023FFF72AFA5C
:1014300004464FEA49000D46FFF7BEF902460B4647
:1014400020462946FFF76CF80446A9EB89000D46B3
:10145000FFF7B2F90022754BFFF762F822462B46E0
:10146000FFF75EF80022CDE90401714B20462946C2
:10147000FFF756F8CDE906010DF5507B0DF1200878
:101480004FF0000ACAF1270000FB00F0FFF794F9C3
:1014900063A3D3E90023FFF7F5F9044650460D4650
:1014A000FFF78AF906460F4632463B46DDE904015E
:1014B000FFF734F822462B46FFF730F8DDE9062324
:1014C000EBE8020130463946FFF72AF822462B4660
:1014D000FFF724F80AF1010ABAF1500FE8E8020117
:1014E000D0D100240DF59063CDF8109003930DF149
:1014F000200A0DF5507B27464E465FE09AED007BB3
:10150000DBE900898DED047B3AB206F1A000DDE94C
:1015100044450692FFF750F902460B4620462946FD
:10152000FFF722FC22462B4620B300204149FEF75C
:10153000F5FF044630460D46FFF73EF902460B46DE
:1015400020462946FEF7ECFF04460D464046494634
:1015500022462B46FEF7E4FF2246804689462B466C
:10156000DDE90401CBE90089FEF7DAFFCDE90401EA
:10157000CAE9000149464046FFF71EFC42464B4679
:1015800005B2DDE90401FEF7C9FFFFF715FC2A4AA1
:101590001468062300220093019203B22946069A9A
:1015A00020460EF01BFB039B0BF1080B06379B45F7
:1015B0000AF1080ABFB22AD01B4A16680DF58662E6
:1015C000D2E900451B4B002220462946FFF7EAFBE3
:1015D00022462B46002891D000201649FEF79EFF98
:1015E000DAE9002304460D46FEF79AFFCDE904012F
:1015F0009DED047BDBE90023204629468AED007B34
:10160000FEF78EFF80468946CBE900897CE70DF224
:10161000646DBDE8F08F00BF555555555555E53FF4
:101620009A9999999999B93F0000002000405F402C
:101630000040634000006440084E0120AFF300808A
:10164000FEE700BFFEE700BF10B4044C0460044B8B
:101650000B60822010605DF8044B7047F809002091
:101660006C0A002010B4044C0460044B0B60FF2093
:1016700010605DF8044B7047340900207C0C00209A
:10168000704700BF704700BF704700BF704700BF82
:101690002DE9F04FADF5097D059007480DF0BCFD33
:1016A00080460598012800F0FB81022806D00DF540
:1016B000097DBDE8F08F00BF4002020820A800218C
:1016C0004FF4D07218F06AFDDFF81CB3BC4BBD4F6D
:1016D000A3A1D1E90001A4A5D5E900459FEDA44B44
:1016E0009FEDA57B4FF0000ACDE924AB0FF2902BC4
:1016F000DBE900ABCDE950010022B3499FEDA25BCD
:101700009FEDA36BCDE92245CDE92645CDE92A45DC
:10171000CDE92E450020CDE960238DED284B9EA319
:10172000D3E900238DED584BA84D8DED2C7B8DED2D
:10173000387B9FED9B4B9FED9C7B0026CDE944675A
:10174000CDE930ABA24FCDE934ABCDE93C01CDE9D9
:101750004C01CDE95401DFF894B29E4900240026E3
:101760000020CDE94045CDE948454FF0000A9A4CAC
:101770008DED205B8DED326BCDE93667CDE94A67A3
:10178000CDE94E67CDE93A23CDE93E23CDE94223A9
:10179000CDE95601CDE95A01CDE95E01CDE95CAB59
:1017A0008DED467B8DED524B4FF6FF758DED624B07
:1017B00028219FED7F4B8DED6E7B9FED7F7B206819
:1017C000CDE964ABCDE974AB8DE82200DFF820B23F
:1017D0000021CDE97223CDE97623CDE97A234FF0BC
:1017E000000A0A464FF4A0738DED785B8DED826B95
:1017F0008DED6C4B8DED687B8DED707BCDE9666773
:10180000CDE96A67CDE97E67CDE97CABCDE980ABF8
:101810000EF0E4F9F0232068019500930021B42232
:101820004FF4A0730EF0DAF96C4B6D4A1B686D49EA
:1018300082FB03021A44D817C0EB6212C2EB0210FB
:101840000025A3EB800307A818F014FD2068CDF84D
:10185000008007AB0195A021BE2215F059FA4FF088
:1018600003080127BD225A26206801954FF0160A69
:101870004FF4877B00920397CDF8088016216423EC
:1018800014F050FB2068039551460196CDF800A056
:10189000CDF808B0D222142311F06AFA6FF0590281
:1018A000206802964FF0E70903950192CDF800A059
:1018B0006421D222142311F05BFA2068019503976A
:1018C0005146CDF800904A46CDF80880322314F0F6
:1018D00029FB2068CDF80090019503974A46CDF882
:1018E00008804621642314F01DFB4FF007096FF0B8
:1018F00059032068019302960395CDF80090322198
:10190000E122052311F034FA206801960395CDF801
:101910000090CDF808B04621E122052311F028FA05
:101920004FF0DB0C206801950397CDF800C06246AC
:10193000CDF808801E213223CDF810C014F0F2FA41
:10194000DDF810C02068CDF800C06246019503970D
:101950003346CDF80880462114F0E4FA4AE000BF8F
:101960000000000000E055400000000000C067409B
:101970000000000000004E40000000000000594040
:101980000000000000C05C40000000000000344087
:1019900000000000000069400000000000C06C4032
:1019A0000000000000E06A400000000000206C40E1
:1019B0000000000000804B40000000000000494093
:1019C00000003940004050400040554000805140E8
:1019D00000806B4000406A40084E0120680A0020E9
:1019E00089888888500202080000444000003E4078
:1019F00000002440206801960395CDF80090CDF8B2
:101A000008B01E21D622052311F0B2F96FF0590259
:101A100020680192029603953146CDF80090D622B7
:101A2000052311F0A5F9D0222068009201950397B3
:101A30003346CDF808801E2114F074FA164B174D6A
:101A4000D3E90001FFF7B8F9C31785FB0025C3EB05
:101A5000253520AB03EB0515D5E90001FFF7ACF9FF
:101A600086B2D5E90201FFF7A7F9236805B236B2BD
:101A70004FF4784731462A4618460097059B0EF0EA
:101A800031FB2068059B009731462A460EF044FE44
:101A90000DF5097DBDE8F08F600A0020AD8BDB6895
:101AA00020A800214FF4D07218F078FBDFF8E892FC
:101AB000AD49AE4DAE4FAF4BDFF8E0B29FED967B38
:101AC0004FF0000800200024CDE94289CDE946010D
:101AD000CDE96045A849A94DDFF8C4920026CDE9BB
:101AE00040670020A64F00244FF000080022CDE9F7
:101AF0003E2300268AA3D3E900238DED287B8DEDBC
:101B0000587BCDE92C019FED887BCDE95401CDE9CF
:101B1000304587A1D1E90001CDE95045CDE93489AF
:101B200085A5D5E90045CDE94C890FF21429D9E9FD
:101B30000089CDE92467CDE95C67924F4FF0000A38
:101B400000269FED815B9FED826BCDE92223CDE9DD
:101B50002623CDE92A23CDE92E23CDE93223CDE971
:101B60003623CDE93A23CDE93867CDE94867CDE999
:101B70004A01854ECDE94E01CDE95201CDE956012C
:101B8000CDE95A01CDE95E45CDE920AB8DED3C7B39
:101B90008DED447BCDE962899FED6F7BCDE964AB30
:101BA0000FF2BC1BDBE900ABCDE96A89CDE96E45DC
:101BB000CDE97201CDE97E23744DDFF8E8913068FC
:101BC0004FF6FF770021282300244FF000080093F0
:101BD00001970A464FF4A0738DED665B8DED686B3F
:101BE0008DED767BCDE96C45CDE97045CDE9744549
:101BF000CDE97889CDE97C89CDE97AAB0DF0EEFFAE
:101C0000F0233068019700930021B4224FF4A073B1
:101C10000DF0E4FF4FF478445A250B276FF0590379
:101C2000306801930295294603940097C82209233E
:101C300011F09EF84FF0B4084FF4B4733068039479
:101C400002930097CDF804802321DD22092311F0AF
:101C50008FF84FF00309059B30680194BE2203936F
:101C600000922B46CDF80890232114F05BF9059BD8
:101C700030680194D322039300922B46CDF808904C
:101C8000392114F04FF9059A306801941921DD23A8
:101C900003920093CDF808900B46C92214F042F944
:101CA0003068019503940097CDF808802321C9225C
:101CB000092311F05DF830680195DE220394009746
:101CC000CDF808803921092311F052F8304B314CFE
:101CD000D3E90001FFF770F884FB0034C317C3EBAE
:101CE000243420A800EB0414D4E90001FFF764F8C1
:101CF000356806B2D4E90201FFF75EF8002302B2AC
:101D000000933146284605230EF006FD0DF5097DAA
:101D1000BDE8F08FAFF300800000000000004940F4
:101D20000000000000C06740000000000080584034
:101D30000000000000606A400000000000C06B402E
:101D40000000000000C06C400000000000C06A40BD
:101D50000000000000003840000000000020694042
:101D6000000000000020684000006A40000043407E
:101D7000004059400000684000004E400080514043
:101D80000000474000805640084E012000003940C6
:101D9000600A0020AD8BDB68000069400080414094
:101DA0000000544000003B402DE9F04F06466748D4
:101DB000674FC6F1C80380FB03201844DB1783B0CC
:101DC000C3EB6010FEF7F8FC0022002304460D462A
:101DD000FEF7E8FF002800F0A98000225D4BD7E95C
:101DE0000001FEF79DFB22462B46FEF799FBC7E953
:101DF000000104460D46584E2046D6E900232946E8
:101E0000FEF78EFB0022C6E90001544B204629460E
:101E1000FEF7C8FF18B100240025C7E90045DFF828
:101E20004081002643E0B01DFEF7C6FC02460B468B
:101E300020462946FEF774FBFEF7BEFFD8F80030B7
:101E4000CDF800904FF6FF7102B2019118460021C3
:101E50004FF4A0730DF0C2FED7E9004500223F4BBE
:101E600020462946FEF79EFFA246AB46002840D1F9
:101E7000A6F1EA00FEF7A0FC02460B465046594682
:101E8000FEF74EFBFEF798FFD8F800304FF6FF71D3
:101E9000062402B2019118460C36009400214FF43A
:101EA000A0730DF09BFEF02E3DD0D7E900452046F3
:101EB00029460022294B4FF00609FEF773FF002840
:101EC000B1D03046FEF778FC22462B46FEF728FBC1
:101ED000FEF772FFD8F80030CDF80090002102B272
:101EE000019118464FF4A0730DF078FED7E9004534
:101EF00099E7A6F1F000FEF75FFC22462B46FEF7BD
:101F00000FFBFEF759FF164A1368CDF80090002129
:101F100002B2019118464FF4A0730DF05FFE0C4B16
:101F2000D3E900ABA4E703B0BDE8F08FF92E0AD8DF
:101F3000D7E900010022074BFEF7F2FAC7E90001DA
:101F400004460D4657E7D7E9004554E78988888855
:101F5000801000200000F03F600A002000806640F2
:101F6000084E01202DE9F04F294D2A4CDFF8B880AA
:101F7000DFF8B8A0284F294E9DB0A946002213468D
:101F8000206802A901F092FD0128F7D04FF6FF71F9
:101F900028680DF027FD22480DF03EF921499DF8F3
:101FA0000920834603A818F065F9002203ABA0219D
:101FB00028680192CDF800B0782214F0A9FE9DF8AF
:101FC0000900FFF7F1FE9DF80800FFF721FA98F8E5
:101FD0000030612B0CD03868FFF75AFB00210B460C
:101FE0004FF0FF32306801F061FD01F01BF9C5E7E9
:101FF000DAF80030D9F80000C3F1B4024FF47841A8
:102000001BB2019112B20093A0210DF0E7FDE2E7AF
:10201000084E01205C0A00200800002094090020DE
:1020200040020208680202080400002000000020AC
:102030002DE9F04F2DED028B4B4BADF2546DC0F1FD
:102040008000D3F80080FEF7B7FB0022474BFEF775
:1020500019FC04464FEA48000D46FEF7ADFB024668
:102060000B4620462946FEF75BFA0646A8EB880099
:102070000F46FEF7A1FB00223D4BFEF751FA324618
:102080003B46FEF74DFA0DF54C7A33A3D3E9002316
:1020900004460D4630463946FEF742FA0DF5B6665F
:1020A000534604AAE3E80245B342E2E80201F9D14B
:1020B00054AB9FED2B8BDFF8C0B00393D04604AE3A
:1020C00000272BE0D8E9004520462946FEF774FE9C
:1020D0001FFA80F9DDE954010022264BFEF744FE89
:1020E00058BBD6E9000122462B46FEF717FAFEF749
:1020F00063FEDBF800400623002500933AB203B2EA
:102100000FFA89F1204601950DF068FD039B083612
:1021100006379E4208F10808BFB216D0DAE950012E
:102120000022144B134DFEF73DFE00240028C9D0B9
:1021300088ED008B4FF0A009CCE70B4B1868A0305E
:10214000FEF73AFBC6E90001CDE70DF2546DBDEC98
:10215000028BBDE8F08F00BF0000000000A06A40C5
:102160000000000000006440000000200000E03F8C
:1021700000805A4000006440084E0120AFF3008008
:102180002DE9F04F9449ADF2646DC0F18000164620
:102190001F46D1F80090FEF70FFB89A3D3E9002377
:1021A000FEF770FB04464FEA49000D46FEF704FBBC
:1021B00002460B4620462946FEF7B2F90446A9EB33
:1021C00089000D46FEF7F8FA02460B4630463946BE
:1021D000FEF7A6F97CA3D3E90023FEF7A1F90DF5DC
:1021E000D16E22462B46DEE900ABFEF799F978A3C3
:1021F000D3E90023CDE9020130463946FEF790F9D4
:1022000022462B46FEF78CF95246CDE904015B4687
:1022100000207249FEF760FCCDE906010DF5507B08
:102220000DF120084FF0000ACAF1270000FB00F072
:10223000FEF7C2FADDE90623FEF724FB044650460A
:102240000D46FEF7B9FA06460F4632463B46DDE933
:102250000201FEF763F922462B46FEF761F9DDE93C
:102260000423EBE8020130463946FEF759F92246CD
:102270002B46FEF755F90AF1010ABAF1500FE8E8CA
:102280000201D1D100240DF59061CDF8089006919E
:102290000DF1200A0DF5507B27464E4661E09AED80
:1022A000007BDBE900898DED027B39B206F1A000ED
:1022B000DDE944450491FEF77FFA02460B462046CD
:1022C0002946FEF751FD22462B4620B30020444903
:1022D000FEF724F9044630460D46FEF76DFA024635
:1022E0000B4620462946FEF71BF904460D4640469C
:1022F000494622462B46FEF713F980468946224678
:10230000DDE902012B46CBE90089FEF709F9CDE9A9
:102310000201CAE9000149464046FEF74DFD42462A
:102320004B4605B2DDE90201FEF7F8F8FEF744FD81
:102330002C4906220C680092002203B20192294621
:10234000049A20460DF04AFC069B0BF1080B063759
:102350009B450AF1080ABFB22CD0DFF87CE0DEF81A
:1023600000600DF58662D2E900451D4B0022204633
:102370002946FEF717FD22462B4600288FD0002065
:102380001749FEF7CBF8DAE9002304460D46FEF7BD
:10239000C7F8CDE902019DED027BDBE90023204671
:1023A00029468AED007BFEF7BBF880468946CBE9DB
:1023B00000897AE70DF2646DBDE8F08FAFF300801D
:1023C000555555555555E53F000000000020624029
:1023D0000000000000C06540000000200000F03F49
:1023E00000006440084E01202DE9F04F9249ADF203
:1023F000646DC0F1800016461F46D1F80090FEF7CC
:10240000DBF987A3D3E90023FEF73CFA04464FEA41
:1024100049000D46FEF7D0F902460B4620462946F4
:10242000FEF77EF80446A9EB89000D46FEF7C4F9D5
:102430007DA3D3E90023FEF773F832463B46FEF74F
:102440006DF80DF5D16E22462B46DEE900ABFEF7A6
:1024500067F83246CDE902013B4675A1D1E900019A
:10246000FEF75CF822462B46FEF75AF85246CDE9B5
:1024700004015B4600207149FEF72EFBCDE9060101
:102480000DF5507B0DF120084FF0000ACAF127002E
:1024900000FB00F0FEF790F9DDE90623FEF7F2F904
:1024A000044650460D46FEF787F906460F4632466B
:1024B0003B46DDE90201FEF731F822462B46FEF7E6
:1024C0002DF8DDE90423EBE8020130463946FEF73A
:1024D00027F822462B46FEF721F80AF1010ABAF145
:1024E000500FE8E80201D1D100240DF59061CDF83C
:1024F000089006910DF1200A0DF5507B27464E46B7
:1025000061E09AED007BDBE900898DED027B39B259
:1025100006F1A000DDE944450491FEF74DF90246BD
:102520000B4620462946FEF71FFC22462B4620B3C9
:1025300000204349FDF7F2FF044630460D46FEF702
:102540003BF902460B4620462946FDF7E9FF0446C3
:102550000D464046494622462B46FDF7E1FF8046A0
:1025600089462246DDE902012B46CBE90089FDF7C9
:10257000D7FFCDE90201CAE9000149464046FEF70E
:102580001BFC42464B4605B2DDE90201FDF7C6FFE2
:10259000FEF712FC2B4906220C680092002203B2BF
:1025A00001922946049A20460DF018FB069B0BF178
:1025B000080B06379B450AF1080ABFB22CD0DFF89A
:1025C00078E0DEF800600DF58662D2E900451C4B2C
:1025D000002220462946FEF7E5FB22462B4600282E
:1025E0008FD000201649FDF799FFDAE90023044651
:1025F0000D46FDF795FFCDE902019DED027BDBE97C
:102600000023204629468AED007BFDF789FF80469E
:102610008946CBE900897AE70DF2646DBDE8F08F59
:10262000555555555555E53F0000000000206240C6
:102630000000000000C06540000000200000F03FE6
:1026400000006440084E012000B5612883B002D02C
:1026500003B05DF804FB094B094A1B6810684FF48E
:102660007841C3F1B4021BB2019112B20093A021D0
:102670000DF0B4FA03B05DF804FB00BF00000020C9
:10268000084E012010B5044C23684FF4FA70013352
:10269000236002F025FBF7E7680A002010B582B03E
:1026A00000F08EFD02210022642000F037FF0E4B67
:1026B0000E491860002401238DE818004FF47A7247
:1026C00023460B4801F020FE0522234600920949CB
:1026D00001944FF47A72084801F016FE02F01AF9DC
:1026E000204602B010BD00BF5C0A0020780202083C
:1026F000651F000884020208B513000810B50446DF
:10270000808F08F079FDA389B42B23D0B3F5877FA0
:1027100015D05A2B07D0A08DE18D228E638EBDE897
:10272000104009F03BBC238EA18DE08D628E1944D0
:10273000C1F5A07189B2BDE8104009F02FBCE08D51
:10274000A18D628E238EC0F1EF0080B2BDE81040F3
:1027500009F024BCA08DE18D228E638EC0F59F70A0
:102760000130C1F1EF0180B289B2BDE8104009F03B
:1027700015BC00BF10B5808F08F03EFD002001465B
:10278000F0224FF4A073BDE8104009F007BC00BF71
:102790008289B42A70B51ED0B2F5877F15D05A2A27
:1027A0000CD0858DC48D808F08F026FD28462146EB
:1027B00001220023BDE8704008F0B4BF848DC58DB0
:1027C000C4F59F740134A4B2EDE7C58D848DC5F1C5
:1027D000EF05ADB2E7E7858DC48DC5F59F75013571
:1027E000C4F1EF04ADB2A4B2DDE700BF70B50025BF
:1027F0004561856104460CF0DBF808F063FC124883
:10280000012105F02DF90121104805F029F90120D9
:1028100005F0A8F8012005F063F8284608F0C2FC8E
:10282000FF2008F0FBFC642232234FF4A076F02551
:102830005A200321E2732374A08126816581A1734C
:102840004FF0FF3070BD00BF846801400469014053
:1028500070B50F4C82B04020012105F04DFD0025E0
:102860000122022320464FF4C04669468DF8042019
:102870008DF8053000968DF806508DF8075005F05C
:10288000DBFA044B044A1C6015805C6002B070BD2A
:10289000001802402C20002034200020012838B5E8
:1028A00004460D4600D938BD00F0B6F80035084999
:1028B000084A094B51F8240032F8141018BF0125BA
:1028C0002A461D5505F04AFBBDE8384000F0B8B86F
:1028D0002C200020F402020834200020012838B502
:1028E000044600D938BD00F097F80A4B0A491D5D2F
:1028F0000A4A51F8240032F81410D5F1010538BF06
:1029000000252A461D5505F029FBBDE8384000F09A
:1029100097B800BF342000202C200020F4020208C9
:1029200001289ABF014B185C00207047342000201A
:102930000A4B1B68013308D04FF0500383F3118812
:10294000BFF36F8FBFF34F8FFEE74FF0500383F35A
:102950001188BFF36F8FBFF34F8FFEE70C0000208D
:1029600005480068006880F3088862B6BFF34F8F9F
:10297000BFF36F8F00DF00BF08ED00E0DFF80C0051
:10298000016841F4700101607047000088ED00E0CB
:1029900010B4094B40F8081C4FF080746FF002012E
:1029A00040F8044C40F8202C40F80C3C40F8241C23
:1029B0005DF8044B4438704731290008064B19680C
:1029C0000868B0E8F04F80F30988BFF36F8F4FF0CD
:1029D000000080F31188704734210020074B1B68EA
:1029E000B3F57A7F08D04FF0500383F31188BFF31B
:1029F0006F8FBFF34F8FFEE7704700BF0C000020C2
:102A0000044B4FF080521A60BFF34F8FBFF36F8FAC
:102A1000704700BF04ED00E04FF0500383F31188CE
:102A2000BFF36F8FBFF34F8F044B1A6801321A60E8
:102A3000BFF34F8FBFF36F8F704700BF0C000020B4
:102A4000084A136843B94FF0500383F31188BFF36A
:102A50006F8FBFF34F8FFEE7013B13600BB983F31A
:102A6000118870470C000020EFF311804FF05001E7
:102A700081F311887047002080F31188704700BFF0
:102A8000EFF30980BFF36F8F124B1A681EF0100F1F
:102A900008BF20ED108A20E9F04F10604DF8043D8A
:102AA0004FF0500080F3118802F0F4FA4FF000006C
:102AB00080F3118808BC19680868B0E8F04F1EF070
:102AC000100F08BFB0EC108A80F30988BFF36F8F36
:102AD000704700BF3421002008B5EFF311834FF099
:102AE000500282F31188BFF36F8FBFF34F8F01F055
:102AF0008FFF18B1034B4FF080521A60002383F30D
:102B0000118808BD04ED00E0034A044B044911603C
:102B100007221A60704700BF14E000E010E000E0F8
:102B20007F20050010B5244B24491C78244882B02E
:102B3000E4B2FF2201941A701B78DBB28DF80330E7
:102B40009DF803409DF8032004F0500407230C7007
:102B5000110603600ED5062300E00B469DF8032006
:102B60005200D2B28DF803209DF80320120603F123
:102B7000FF31F2D4019C1049124A1B0203F4E063B6
:102B8000E4B203600C70136843F4700313601368BD
:102B900043F070431360FFF7B7FF0B4B00221A603E
:102BA000FFF7ECFE094B1A6842F040421A60FFF74B
:102BB000D7FEFFF7BDFE00BF00E400E03820002094
:102BC0003C20002020ED00E00C00002034EF00E06D
:102BD000EFF305830F2B0ED91049114A5B5C127875
:102BE0009A4208D94FF0500383F31188BFF36F8FD7
:102BF000BFF34F8FFEE70B4A0B4B12681B6802F4C2
:102C0000E0629A4208D94FF0500383F31188BFF372
:102C10006F8FBFF34F8FFEE7704700BFF0E300E018
:102C2000382000200CED00E03C20002070B5012091
:102C300084B0014605F084FB254E0121022005F0F9
:102C40007FFB4FF0804006F07BFA304606F078FAC2
:102C500001A806F09FFB002542F2D00301A94FF026
:102C600080400293ADF80450ADF80C50ADF806501A
:102C700006F042FB4FF08040012106F0C7FB4FF603
:102C8000FF7301A93046029306F036FB304601215E
:102C900006F0BCFB01241C2368468DF800308DF83B
:102CA00002508DF801508DF8034003F0BFFB22461F
:102CB00021464FF0804006F0FDFF21464FF0804056
:102CC00006F0CAFB3046214606F0C6FB04B070BDD4
:102CD00000040040124A134B516A1A88042A30B487
:102CE00089B219D9104A114813880488CB1A9BB2AB
:102CF0009C4206D2A3F50354103C0D4D0380A4B2B0
:102D00002C800C4B11801A684FF080400132012159
:102D100030BC1A6006F0F0BF501C1880024AF0E781
:102D2000000400404C2000204020002042200020D1
:102D30004420002048200020414A424BD2F888100D
:102D4000414841F47001C2F888101968002241F02E
:102D5000010119609A60196821F0847121F48031B1
:102D600019605860196882B021F480211960DA6016
:102D7000009201921A6842F480321A601A4603E007
:102D8000009BB3F5A04F09D0136803F400330193FF
:102D9000009B01330093019B002BF1D0294B1B6852
:102DA00013F4003318BF01230193019B012B42D080
:102DB000244A264B116C41F080511164196841F48A
:102DC0004041196093689360936843F400439360B3
:102DD000936843F4A0539360136843F080731360C7
:102DE00013689B01FCD519490B6843F480330B60D1
:102DF0004B68164AD803FBD5136843F400331360BD
:102E000053689B03FCD5124B0E4A40F205711960C2
:102E1000936823F003039360936843F00203936085
:102E2000936803F00C03082BFAD1054B4FF00062B6
:102E30009A6002B07047034B064A5A60B8E700BF79
:102E400000ED00E000380240103000240070004027
:102E5000003C0240085A4007164B9A6802F00C02E8
:102E6000042A24D0082A0AD0134A124B134899681E
:102E7000134BC1F30311415CCA401A607047586894
:102E800059685B6842024CBF0E4A0B4A01F03F0191
:102E9000C3F38813B2FBF1F202FB03F2054B5B684C
:102EA000C3F3014301335B00B2FBF3F2DDE7054AF4
:102EB000DBE700BF003802400024F40010000020CF
:102EC0002000002000127A002DE9F04F012093B07D
:102ED000014605F011FA1020012105F00DFA20201D
:102EE000012105F009FA1020012105F035FA4FF40F
:102EF0008070012105F030FADFF82892DFF828828F
:102F0000824F834EDFF824B24FF40070012105F0A8
:102F100023FA4FF4806001210024012505F01CFAFA
:102F20004FF0030A0223484602A94FF4C0628DF80D
:102F30000C3002928DF80E408DF80F508DF80DA0D8
:102F400004F07AFF48460921072205F013F807220A
:102F500048460A2105F00EF8484602A902958DF868
:102F60000C408DF80DA08DF80F4004F065FF7C2318
:102F700002A9684802938DF80C408DF80DA08DF8D9
:102F80000F5004F059FF484602A9029504F054FF7F
:102F900002A94023604802938DF80CA08DF80DA083
:102FA0008DF80F4004F048FF2023484602A94FF057
:102FB0000809029304F040FF0DEB09015748CDF8D2
:102FC000089004F039FF04A804940594069407942B
:102FD00005F018FF05F0D2FE40460CA90C948DF8C0
:102FE00034408DF835500F9410948DF8445005F00E
:102FF000D3FE0CA9384605F0CFFE0CA9304605F0EB
:10300000CBFE40462A460421072305F04DFF3846F3
:103010002A460521072305F047FF2A4607233046A5
:103020000D2105F041FF4046294605F09DFF384639
:10303000294605F099FF3046294605F095FF4046A0
:10304000214605F0B7FF3846214605F0B3FF30466C
:10305000214605F0AFFF4046294605F0EDFE384613
:10306000294605F0E9FE2946304605F0E5FE4046D2
:1030700005F066FF384605F063FF304605F060FF57
:103080000C2358464FF4964208A9ADF82A3008920E
:10309000ADF82C40ADF82840ADF82640ADF82440FE
:1030A00005F0B6FC2A46584640F2255105F010FEC0
:1030B0000526252301A88DF804308DF807508DF8DA
:1030C00005608DF8066003F0B1F92946584605F011
:1030D00025FD582301A88DF804308DF807508DF890
:1030E00005608DF8066003F0A1F92846294604F032
:1030F000C5FD4846214604F0C1FD4FF4A27004F01E
:103100002BFC074B1C8013B0BDE8F08F0020014062
:10311000002101400010024000140240000802405B
:103120004E2000200000024000220140001001401B
:1031300030B50C4D83B00024284640F225518DF85F
:10314000004005F0EDFD50B102A90748AB8801F839
:10315000083D224669462346006800F0EFFB03B0B5
:1031600030BD00BF00100140780C002008B50120E0
:1031700004F0A0FD00B908BD084B0021186800F05C
:103180003FFC074B4FF080521A60BFF34F8FBFF3E5
:103190006F8F0120BDE8084004F09ABD940900201B
:1031A00004ED00E0014608B5044805F0EBFC0348D7
:1031B000402105F0ABFD0028F9D008BD001001400A
:1031C00008B5FFF7B9FD4FF4407003F025F90BF097
:1031D00005FF002004F092FB0E48FF2104F0ECFCF8
:1031E000FF210D4804F0E8FC012004F0BBFB0121A5
:1031F0000022642000F092F9084B0021186003229D
:10320000012000F08BF9064B1860BDE80840FFF77D
:103210005BBE00BF8468014004690140780C002057
:103220009409002038B50E4C258865B1002007F0C0
:10323000B9FF0C48FF2104F0BFFC012004F092FB11
:103240000023238038BD012007F0ACFF2946054844
:1032500004F0B2FC012004F085FB0123238038BD7B
:103260004E20002004690140FEE700BF704700BF08
:10327000002100F004B80C4B5B58435004310B485C
:103280000B4B42189A42FFF4F6AF0A4A00F003B81B
:10329000002342F8043B084B9A42FFF4F9AFFFF7D2
:1032A0004BFDFFF7FBF97047584102080000002072
:1032B000200900202009002080500120FFF7FEBFD8
:1032C00000F108034FF0FF310022816080E80C001C
:1032D000C3600361704700BF00230361704700BFF4
:1032E000436830B49A6805688A609C684B606A1CC1
:1032F0006160996030BC08610260704730B40D684D
:103300006B1C11D000F1080200E01A4653681C68DB
:10331000A542FAD204684B60013499608A6051601A
:103320000861046030BC704702695368F2E700BF6F
:1033300042688168036910B4916081685C684A6082
:103340001A68844208BF5960013A002101615DF8A2
:10335000044B1A601046704770B51646026C856BB8
:1033600004463AB90668104666BB606802F01AFA6D
:10337000666027E06EB98068FCF724FFA168236CC3
:1033800062680B449342A36017D32368A36030465E
:1033900018E0C068FCF716FF226CE368216852420F
:1033A00013448B42E36002D263681A44E260022E47
:1033B00005D135B1013D002004E0304602E0002097
:1033C00000E028460135A56370BD00BF026C10B453
:1033D000034672B1C46840681444844228BF186828
:1033E000DC6028BFD8605DF8044B0846D968FCF75C
:1033F000E9BE5DF8044B704770B50446FFF70CFB5F
:1034000094F84550EDB26BB2002B15DD636A9BB1A9
:1034100004F1240605E06B1E13F0FF050CD0636A6F
:1034200053B1304601F0E4FF0028F4D002F0C8F8B0
:103430006B1E13F0FF05F2D1FF2384F84530FFF730
:10344000FFFAFFF7E9FA94F84450EDB26BB2002BA3
:1034500015DD23699BB104F1100605E06B1E13F026
:10346000FF050CD0236953B1304601F0C1FF00289D
:10347000F4D002F0A5F86B1E13F0FF05F2D1FF2384
:1034800084F84430BDE87040FFF7DABA38B5044636
:103490000D46D0B1FFF7C0FA206CE26B2368A36041
:1034A00002FB00F2101A184400211344FF22A1630A
:1034B000E06084F84420636084F8452005BB2369FC
:1034C00063B9FFF7BDFA012038BD4FF0500383F315
:1034D0001188BFF36F8FBFF34F8FFEE704F1100029
:1034E00001F086FF0028ECD00B4B4FF080521A60A1
:1034F000BFF34F8FBFF36F8FFFF7A2FA012038BDE4
:1035000004F11000FFF7DCFE04F12400FFF7D8FE01
:10351000FFF796FA012038BD04ED00E0F8B5054646
:103520000E46174640B94FF0500383F31188BFF39E
:103530006F8FBFF34F8FFEE769B301FB00F0503090
:1035400002F0E2FE044620B300F150032360E5637D
:103550002664FFF761FA206CE16B2368A36001FB2E
:1035600000F1081A002218440B44FF21A263636093
:1035700084F84410E06084F8451004F11000FFF76F
:103580009FFE04F12400FFF79BFEFFF759FA84F831
:103590004C702046F8BD502002F0B6FE04460346AB
:1035A0000028D3D12046F8BD10B50C4640B94FF0E5
:1035B000500383F31188BFF36F8FBFF34F8FFEE784
:1035C000884208D24FF0500383F31188BFF36F8F06
:1035D000BFF34F8FFEE700210222FFF79FFF00B1EC
:1035E000846310BD2DE9F04F85B004460F4601926B
:1035F0001D46002800F00281002900F03A81022DCA
:1036000000F02A8102F074F8002800F00081FFF732
:1036100003FAA26BE36BDFF8749200269A42B0467D
:10362000C0F0D880022D00F0D580DDF804A0BAF1FA
:10363000000F00F00681002E00F0FF80FFF700FA77
:1036400001F0B8F9FFF7E8F994F844305BB20133C0
:1036500008BF84F8448094F845305BB2013308BF5A
:1036600084F84580FFF7ECF902A801A901F064FF96
:10367000002840F0D980FFF7CFF9A26BE36B9A42A4
:103680004AD0FFF7DDF9FFF7C7F994F84560F6B2C5
:1036900073B2002B15DD636A9BB104F1240A05E0C7
:1036A000013E16F0FF060CD0636A53B1504601F09C
:1036B0009FFE0028F4D0013E01F082FF16F0FF06C5
:1036C000F2D1FF2384F84530FFF7BAF9FFF7A4F9E8
:1036D00094F84460F6B273B2002B15DD23699BB1F8
:1036E00004F1100A05E0013E16F0FF060CD0236934
:1036F00053B1504601F07CFE0028F4D0013E01F0A9
:103700005FFF16F0FF06F2D1FF2384F84430FFF785
:1037100097F901F01FFA54E004F1100AFFF790F94D
:103720005046019901F088FDFFF776F994F845605D
:10373000F6B273B2002B15DD636A9BB104F1240B62
:1037400005E0013E16F0FF060CD0636A53B15846FF
:1037500001F04EFE0028F4D0013E01F031FF16F0DA
:10376000FF06F2D1FF2384F84530FFF769F9FFF730
:1037700053F994F84460F6B273B2002B04DC10E005
:10378000013E16F0FF060CD0236953B1504601F0FC
:103790002FFE0028F4D0013E01F012FF16F0FF06C4
:1037A000F2D1FF2384F84430FFF74AF901F0D2F94F
:1037B00038B94FF08053C9F80030BFF34F8FBFF3D3
:1037C0006F8FFFF729F9A26BE36B9A424FF0010666
:1037D000BFF428AF39462A462046FFF7BDFD636A8D
:1037E0009BBB38B1294B4FF080521A60BFF34F8F0B
:1037F000BFF36F8FFFF724F901201BE04FF0500358
:1038000083F31188BFF36F8FBFF34F8FFEE7019BE8
:10381000002B3FF4FCAE4FF0500383F31188BFF34D
:103820006F8FBFF34F8FFEE72046FFF7E5FD01F0F6
:1038300091F9002005B0BDE8F08F02A801F066FE06
:10384000FCE6FFF7FDF85046F4E704F1240001F030
:10385000CFFD0028C6D1CDE7E36B012B3FF4D2AEFC
:103860004FF0500383F31188BFF36F8FBFF34F8F77
:10387000FEE7036C002B3FF4C2AE4FF0500383F31E
:103880001188BFF36F8FBFF34F8FFEE704ED00E0A9
:1038900070B50646502002F037FD044660B300259F
:1038A00001232060C3630564FFF7B6F8216CE26B67
:1038B0002368A36002FB01F2511A58189918FF22DD
:1038C0006160A563E06084F8442004F1100084F88E
:1038D0004520FFF7F5FC04F12400FFF7F1FCFFF7AA
:1038E000AFF8294665602560E56084F84C602A469B
:1038F0002B462046FFF776FE204670BD38B50446BD
:1039000030B1456801F0EEFE85420AD0002038BD96
:103910004FF0500383F31188BFF36F8FBFF34F8FC6
:10392000FEE7E1680139E16009B1012038BD2046B8
:103930000A460B46FFF756FE012038BD2DE9F0413F
:1039400004460F4616461D46D0B100293ED0022D32
:1039500030D0FFF73DF9EFF311884FF0500383F3B8
:103960001188BFF36F8FBFF34F8FA26BE36B9A4247
:103970000FD3022D0DD0002088F31188BDE8F0810F
:103980004FF0500383F31188BFF36F8FBFF34F8F56
:10399000FEE794F845302A463946DDB22046FFF767
:1039A000DBFC6BB201331DD06B1CDBB284F84530FD
:1039B0000120E1E7E36B012BCBD04FF0500383F301
:1039C0001188BFF36F8FBFF34F8FFEE7036C002B9F
:1039D000BDD04FF0500383F31188BFF36F8FBFF357
:1039E0004F8FFEE7636A002BE2D004F1240001F060
:1039F000FFFC0028DCD0002EDAD001203060BBE7CD
:103A000070B504460D4660B3036C43B14FF05003EC
:103A100083F31188BFF36F8FBFF34F8FFEE7036807
:103A2000002B37D0FFF7D4F8EFF311864FF0500397
:103A300083F31188BFF36F8FBFF34F8FA36BE26BDC
:103A4000934225D294F845200133FF2AA363D3B2D1
:103A500010D00133DBB284F84530012086F31188A1
:103A600070BD4FF0500383F31188BFF36F8FBFF326
:103A70004F8FFEE7636A002BEFD004F1240001F0C2
:103A8000B7FC0028E9D0002DE7D001202860E5E749
:103A90000020E3E74368002BC4D04FF0500383F3CA
:103AA0001188BFF36F8FBFF34F8FFEE72DE9F0470B
:103AB00084B004460E4601929846002800F010811A
:103AC000002900F0458101F013FE002800F011816B
:103AD000FEF7A2FFD4F838A0DFF89C9200252F460D
:103AE000BAF1000F40F09480019B002B00F016818A
:103AF00015B902A801F00AFDFEF7A2FF00F05AFF77
:103B0000FEF78AFF94F844305BB2013308BF84F8B3
:103B1000447094F845305BB2013308BF84F84570B7
:103B2000FEF78EFF02A801A901F006FD002840F073
:103B30008880FEF771FFA36B002B59D1FEF780FF41
:103B40002368002B00F0E28004F1240A504601991A
:103B500001F072FBFEF760FF94F84550EDB26BB2D6
:103B6000002B04DC10E0013D15F0FF050CD0636A6A
:103B700053B1504601F03CFC0028F4D0013D01F067
:103B80001FFD15F0FF05F2D1FF2384F84530FEF745
:103B900057FFFEF741FF94F84450EDB26BB2002B93
:103BA00015DD23699BB104F1100A05E0013D15F014
:103BB000FF050CD0236953B1504601F019FC0028D1
:103BC000F4D0013D01F0FCFC15F0FF05F2D1FF231C
:103BD00084F84430FEF734FF00F0BCFF78B94FF0B2
:103BE0008053C9F80030BFF34F8FBFF36F8F06E0EB
:103BF000FEF726FF2046FFF7FFFB00F0ABFFFEF7C6
:103C00000BFFD4F838A00125BAF1000F3FF46CAFD8
:103C100031462046E568FFF7D9FBB8F1000F40F0C8
:103C2000838023680AF1FF32A26313B901F020FEFA
:103C300060602369002B40F09880FEF701FF0120AF
:103C40006FE0FEF7E9FE94F84550EDB26BB2002B41
:103C500015DD636A9BB104F1240A05E0013D15F00E
:103C6000FF050CD0636A53B1504601F0C1FB002838
:103C7000F4D0013D01F0A4FC15F0FF05F2D1FF23C3
:103C800084F84530FEF7DCFEFEF7C6FE94F844509B
:103C9000EDB26BB2002B15DD23699BB104F1100A64
:103CA00005E0013D15F0FF050CD0236953B15046E6
:103CB00001F09EFB0028F4D0013D01F081FC15F0DD
:103CC000FF05F2D1FF2384F84430FEF7B9FE00F07F
:103CD00041FFFEF7A1FEA36B03B3FEF7B1FE8EE733
:103CE0004FF0500383F31188BFF36F8FBFF34F8FF3
:103CF000FEE7019B002B3FF4EBAE4FF0500383F344
:103D00001188BFF36F8FBFF34F8FFEE7FEF784FE7E
:103D1000606801F0FDFCFEF793FE15E7FEF790FEEC
:103D2000002004B0BDE8F087636AE560002B84D012
:103D300004F1240001F05CFB00283FF47EAF0E4B41
:103D40004FF080521A60BFF34F8FBFF36F8F74E74D
:103D5000036C002B3FF4B7AE4FF0500383F3118890
:103D6000BFF36F8FBFF34F8FFEE704F1100001F038
:103D70003FFB0028E3D160E704ED00E070B50446A6
:103D80000D46A0B1466801F0ADFC86420AD0002184
:103D90002A460B462046FFF789FE10B1E36801333F
:103DA000E36070BDE3680133E360012070BD4FF054
:103DB000500383F31188BFF36F8FBFF34F8FFEE77C
:103DC0002DE9F04104460F46164698B169B3FEF757
:103DD000FFFEEFF311884FF0500383F31188BFF318
:103DE0006F8FBFF34F8FA56B6DB9284688F311888D
:103DF000BDE8F0814FF0500383F31188BFF36F8F5C
:103E0000BFF34F8FFEE794F8443039462046DFB2C7
:103E1000FFF7DCFA7BB2013D0133A56311D07B1CB7
:103E2000DBB284F844300120E0E7036C002BCED0F5
:103E30004FF0500383F31188BFF36F8FBFF34F8FA1
:103E4000FEE72369002BEED004F1100001F0D0FA58
:103E50000028E8D0002EE6D001203060C6E700BF81
:103E600070B504460D4658B1036C51B38BB94FF091
:103E7000500383F31188BFF36F8FBFF34F8FFEE7BB
:103E80004FF0500383F31188BFF36F8FBFF34F8F51
:103E9000FEE7FEF79DFEEFF311864FF0500383F32C
:103EA0001188BFF36F8FBFF34F8FA06B30B12946DE
:103EB0002046E568FFF78AFAE560012086F311885D
:103EC00070BD002BD3D04FF0500383F31188BFF3A4
:103ED0006F8FBFF34F8FFEE710B5044630B1FEF78A
:103EE0009BFDA46BFEF7ACFD204610BD4FF05003C8
:103EF00083F31188BFF36F8FBFF34F8FFEE700BFCF
:103F000010B5044640B1FEF787FDA36BE46BE41ADD
:103F1000FEF796FD204610BD4FF0500383F3118845
:103F2000BFF36F8FBFF34F8FFEE700BF08B1806B09
:103F300070474FF0500383F31188BFF36F8FBFF3C7
:103F40004F8FFEE710B448B3314B5A6890422ED0E1
:103F5000DA6890424BD05A69904250D0DA69904268
:103F60002DD05A6A904232D0DA6A904237D05A6BDA
:103F7000904208D0DA6B904208BF072204D05DF867
:103F8000044B02F0F1B9062203EBC204002143F80E
:103F9000321061605DF8044B02F0E6B94FF0500357
:103FA00083F31188BFF36F8FBFF34F8FFEE70022BB
:103FB00003EBC204002143F832106160EAE70322F8
:103FC00003EBC204002143F832106160E2E70422EF
:103FD00003EBC204002143F832106160DAE70522E6
:103FE00003EBC204002143F832106160D2E70122E2
:103FF00003EBC204002143F832106160CAE70222D9
:1040000003EBC204002143F832106160C2E700BF35
:1040100050200020806C70478164704790F84C00FD
:10402000704700BF28B1806BD0F1010038BF00207D
:1040300070474FF0500383F31188BFF36F8FBFF3C6
:104040004F8FFEE728B1826BC06B131A584258415C
:1040500070474FF0500383F31188BFF36F8FBFF3A6
:104060004F8FFEE7144B1A6810B48AB19A68BAB140
:104070001A69BAB19A69BAB11A6ABAB19A6ABAB186
:104080001A6B22B19A6BAAB15DF8044B70470622F5
:1040900003EBC20443F8321060605DF8044B7047D4
:1040A0000122F5E70222F3E70322F1E70422EFE71A
:1040B0000522EDE70722EBE750200020164B5A6857
:1040C00082421CD0DA6882421BD05A6982421AD0DE
:1040D000DA69824219D05A6A824218D0DA6A824278
:1040E00017D05A6B824206D0DA6B824208BF072291
:1040F00002D000207047062253F832007047002299
:10410000FAE70122F8E70222F6E70322F4E70422A5
:10411000F2E70522F0E700BF50200020174B5A6855
:1041200082421FD0DA6882421ED05A6982421DD074
:10413000DA6982421CD05A6A82421BD0DA6A824211
:104140001AD05A6B824205D0DA6B824208BF07222E
:1041500001D07047062203EBC200002143F8321061
:10416000416070470022F6E70122F4E70222F2E7FD
:104170000322F0E70422EEE70522ECE750200020BE
:1041800070B504460E461546FEF746FC94F84430DA
:104190005BB2013304BF002384F8443094F8453007
:1041A0005BB2013304BF002384F84530FEF748FCBE
:1041B000A36B2BB931462A4604F1240001F0BCF868
:1041C000FEF72AFC94F84550EDB26BB2002B15DDDA
:1041D000636A9BB104F1240605E06B1E13F0FF0532
:1041E0000CD0636A53B1304601F002F90028F4D0D4
:1041F00001F0E6F96B1E13F0FF05F2D1FF2384F8FE
:104200004530FEF71DFCFEF707FC94F84450EDB274
:104210006BB2002B15DD23699BB104F1100605E09C
:104220006B1E13F0FF050CD0236953B1304601F02B
:10423000DFF80028F4D001F0C3F96B1E13F0FF057E
:10424000F2D1FF2384F84430BDE87040FEF7F8BB9C
:10425000074B1A68126822B9064B4FF0FF321A60FA
:1042600070471A68034BD268D26852681A60704768
:104270009420002038210020F8B51C4B1C4D1E68EE
:104280002B680446181D0F46FFF752F848B92A68F4
:10429000184BD26A1968012000FA02F221EA0202E0
:1042A0001A60631C19D034442B68114A5C60A64222
:1042B0000BD8114B186811680431FFF71FF80F4B2A
:1042C0001A68944238BF1C60F8BD0D4B186811681D
:1042D000BDE8F8400431FFF711B8002FE3D029689A
:1042E00008480431BDE8F840FEF7FABF402100203D
:1042F000342100208C21002094200020382100202F
:1043000044210020782100202DE9F84F97008246B3
:1043100038460E469946DDF82C8001F0F5FF04463C
:10432000002800F08F80602001F0EEFF0546002895
:1043300000F0858004633A462046A52115F02EFF43
:104340002B6B043F3B4423F0070B00242B19325DF9
:1043500083F83420375D01340FB1142CF6D10A9F55
:104360000024042F28BF04272E1DEF622F6530463E
:1043700085F847406C65FEF7AFFFC7F1050705F10B
:104380001800FEF7A9FFAC65AF612D6185F85C40B0
:104390006D62584651464A46FEF7FAFA2860B8F16F
:1043A000000F01D0C8F80050FEF736FB3F4B404CE1
:1043B0001A6801321A602268002A47D0DFF8189183
:1043C000D9F800307BB3EB6ADFF810A1394F3A4AD5
:1043D000396810684FF0010801EB080E08FA03FC79
:1043E00003EB83033146C5F848E04CEA00060AEBCC
:1043F0008300C7F800E01660FEF772FFFEF720FBAF
:10440000D9F80030C3B12268EB6AD26A9A4213D25B
:104410002A4B4FF080521A60BFF34F8FBFF36F8F5C
:104420004046BDE8F88F2268EB6AD26ADFF8ACA09C
:104430009A4298BF2560C9E74046BDE8F88F2046FC
:1044400001F092FF4FF0FF30BDE8F88F25601B6848
:10445000012B05D0EB6ADFF884A0DFF87C90B5E78C
:10446000DFF878A057460AF1640838461437FEF79B
:1044700027FF4745F9D1DFF86880114FDFF85890E2
:104480004046FEF71DFF3846FEF71AFF0D48FEF7BF
:1044900017FF0D48FEF714FF0C48FEF711FF0C4BF9
:1044A0000C4AC3F80080EB6A17608FE76021002098
:1044B000342100205C2100208C21002004ED00E04C
:1044C00064210020482100201C21002078210020A8
:1044D000942000204421002098200020B8200020B3
:1044E000A020002070B50446354DFEF795FA002C4B
:1044F00045D0261D3046FEF71BFF38B9E36A314A26
:1045000003EB830152F82120002A2FD0A36A1BB1AC
:1045100004F11800FEF70CFF2B4B29681A688C4237
:1045200002F101021A602CD0284B206B1A68013A64
:104530001A6001F019FF204601F016FF244B1A689B
:10454000126872B11A68234BD268D26852681A6036
:10455000FEF776FA204B1B6813B12B689C4219D0EA
:1045600070BD1C4B4FF0FF321A60F1E71B4A01206F
:10457000116800FA03F321EA03031360C6E72C680D
:10458000B7E731461648FEF7ABFE164B1A68013204
:104590001A60DDE7144B1B6843B14FF0500383F3FF
:1045A0001188BFF36F8FBFF34F8FFEE70F4B4FF0B4
:1045B00080521A60BFF34F8FBFF36F8F70BD00BF83
:1045C00034210020B82000205C2100206021002040
:1045D0009420002038210020982000208C210020E9
:1045E0001C210020302100209C20002004ED00E050
:1045F00038B5054608B3184B1B6898421BD0FEF728
:104600000BFA6C69FEF71CFA144B1B689C420ED027
:10461000134B1B689C420AD0124B9C4216D0124B83
:104620009C4206D0002C14BF0120042038BD02207B
:1046300038BD042038BD002038BD4FF0500383F34F
:104640001188BFF36F8FBFF34F8FFEE7AB6A002B6C
:1046500014BF0220032038BD342100209420002004
:1046600044210020782100201C21002010B50446A0
:10467000FEF7D2F924B1E46AFEF7E2F9204610BD54
:10468000034B1C68E46AFEF7DBF9204610BD00BF4F
:104690003421002010B50446FEF79AFAEFF3118397
:1046A0004FF0500282F31188BFF36F8FBFF34F8F2B
:1046B0001CB183F31188E06A10BD034A146883F3C8
:1046C0001188E06A10BD00BF3421002004292DE9C3
:1046D000F0410D46044608D94FF0500383F311888A
:1046E000BFF36F8FBFF34F8FFEE7FEF795F9002CF6
:1046F0004ED0236D9D4247D0284A09D911688C427B
:1047000049D01268D76ABD4234BF0027012703E0B1
:104710001768E21B57425741E66A2565B342A36911
:1047200008BFE562002BA4BFC5F10505A5611C4DBE
:10473000636906EB860205EB820293421BD104F10A
:1047400004084046FEF7F4FD164B30B91A68012103
:1047500001FA06F622EA06021A60E26A1C680126DD
:1047600002EB8200964046EA0402414605EB8000D7
:104770001A60FEF7B5FD3FB10B4B4FF080521A6047
:10478000BFF34F8FBFF36F8FBDE8F041FEF758B90D
:10479000024B1C68ADE70027BEE700BF34210020B4
:1047A000B82000208C21002004ED00E0F8B504467C
:1047B00070B1224D2B68984209D0FEF72DF9204A9E
:1047C000636993420DD0BDE8F840FEF739B9F8BDF2
:1047D0004FF0500383F31188BFF36F8FBFF34F8FF8
:1047E000FEE7A36A174A9342EDD0002BEBD1261DBA
:1047F0003046FEF79DFD144AE36A176813484FF0F0
:10480000010E0EFA03FE03EB8303314600EB830037
:104810004EEA07061660FEF763FD2B68E26ADB6A64
:104820009A42D0D30A4B4FF080521A60BFF34F8F99
:10483000BFF36F8FBDE8F840FEF702B934210020C6
:1048400078210020482100208C210020B820002061
:1048500004ED00E0F8B50446A0B1FEF7B9F9EFF3B6
:1048600011874FF0500383F31188BFF36F8FBFF3AD
:104870004F8F224A636993420DD0002587F3118838
:104880002846F8BD4FF0500383F31188BFF36F8FB4
:10489000BFF34F8FFEE7A56A19488542EDD0002D82
:1048A000EBD1184B1B680BBB174AE36A1268D56A39
:1048B000261DAB42304634BF00250125FEF738FDEA
:1048C000124AE36A124814684FF0010E0EFA03FE12
:1048D00003EB83034EEA0404314600EB83001460CB
:1048E000FEF7FEFC87F311882846F8BD04F1180195
:1048F000FEF7F6FC87F311882846F8BD78210020E2
:10490000482100209C200020342100208C21002000
:10491000B820002030B583B00024184A01920094DA
:104920002346174817498222FFF7EEFC01280CD0D6
:10493000013001D003B030BD4FF0500383F3118834
:10494000BFF36F8FBFF34F8FFEE701F067FA0128C7
:10495000EED14FF0500383F31188BFF36F8FBFF395
:104960004F8F0949094A0A4B4FF0FF350D6010601F
:104970001C6003B0BDE83040FEF7D4B83C210020F5
:104980002D4D0008F8020208382100209820002050
:10499000402100204FF0500383F31188BFF36F8F45
:1049A000BFF34F8F024B00221A60FEF717B800BF0B
:1049B00098200020024B1A6801321A60704700BF2D
:1049C0009C200020014B1868704700BF4021002048
:1049D00008B5FEF7FDF8014B186808BD402100201E
:1049E000014B1868704700BF6021002008B13430C7
:1049F0007047064B18680028F9D14FF0500383F335
:104A00001188BFF36F8FBFF34F8FFEE73421002073
:104A10002DE9F84F444B1B68002B79D1434B1C68A0
:104A200001341C60BCB9424B1A68126842B14FF0A5
:104A3000500383F31188BFF36F8FBFF34F8FFEE7EF
:104A40003C4918683C4A0D681D60086013680133D2
:104A50001360FFF7FDFB394D394F2B68394E9C42EF
:104A60003CD3DFF8EC904FF0000B2EE0304B1A688F
:104A7000D268D2F80C80D8F8041008F1040A8C42ED
:104A800050464ED3FEF754FCD8F8281008F1180011
:104A900009B1FEF74DFCD8F82C10D9F800300122EE
:104AA00002FA01FC01EB810007EB800051464CEA61
:104AB0000303C9F80030FEF713FC3068D8F82C1057
:104AC000C26A914228BF4FF0010B194B1A68126855
:104AD000002ACBD14FF0FF322A6001E04FF0000BEB
:104AE00032681949D26A096802EB820257F822201B
:104AF000022A28BF4FF0010B09B9FEF7B7FB134A92
:104B00001268002A18BF4FF0010B5846BDE8F88F15
:104B10000D4B1A6801321A604FF0000BFEF7A6FB2E
:104B2000EDE72960DCE700BF9C2000204021002049
:104B300094200020442100209020002038210020D3
:104B4000B820002034210020B42000209021002033
:104B50008C2100202DE9F84F324C236843B94FF0E7
:104B6000500383F31188BFF36F8FBFF34F8FFEE7BE
:104B7000FDF752FF2368013B23602468002C4BD1D2
:104B8000294B1B68002B47D0DFF8B490274D284EE7
:104B9000DFF8B0A0CB4620E0DBF80C30DC6804F195
:104BA000040804F11800FEF7C3FB4046FEF7C0FB03
:104BB000E36A326807FA03FE03EB830041464EEADC
:104BC00002030AEB80003360FEF78AFB194AE36AAE
:104BD0001268D26A934228BF2F60D9F800300127AB
:104BE000002BD9D10CB1FFF733FB134E34683CB125
:104BF0000127FFF70DFF00B12F60013CF9D13460B0
:104C00002B684BB10D4B4FF080521A60BFF34F8FA2
:104C1000BFF36F8F012400E00024FDF711FF204651
:104C2000BDE8F88F9C20002060210020902100200A
:104C30008C21002034210020B420002004ED00E06D
:104C400048210020B820002038B5A8B141B94FF064
:104C5000500383F31188BFF36F8FBFF34F8FFEE7CD
:104C60001C4A13688BB14FF0500383F31188BFF3D4
:104C70006F8FBFF34F8FFEE74FF0500383F3118820
:104C8000BFF36F8FBFF34F8FFEE71568124B0468B9
:104C9000013515601A68A24204EB010314D29C424C
:104CA00016D99A4214D203600021981AFFF7E4FA49
:104CB000FFF750FF58B9094B4FF080521A60BFF30D
:104CC0004F8FBFF36F8F38BD9C42ECD8E9E738BDFA
:104CD0000360EDE79C2000204021002004ED00E06F
:104CE00008B558B10F4B196889B14FF0500383F3E1
:104CF0001188BFF36F8FBFF34F8FFEE70A4B4FF062
:104D000080521A60BFF34F8FBFF36F8F08BD1A68D0
:104D100001321A60FFF7B0FAFFF71CFF0028EDD050
:104D200008BD00BF9C20002004ED00E0204E214D76
:104D3000214CDFF88C80DFF88C902DE98848B24652
:104D400006E02268376801322260FFF703FF8FB95F
:104D50002B68002BF5D1D9F80030012B07D9174A61
:104D60004FF080531360BFF34F8FBFF36F8FFCF78B
:104D700067FCEDE7FDF750FEDAF80C30D3F80CB025
:104D80000BF10400FEF7D4FAD8F80020094B013AE1
:104D9000C8F800201A68013A1A60FDF751FEDBF8E6
:104DA000300001F0E1FA584601F0DEFAD0E700BF2A
:104DB0001C210020302100209C20002004ED00E078
:104DC00060210020B82000204B685B684B602DE913
:104DD000F04F01F10808434508BF5B68D3F80CA009
:104DE00083B00F46914605464FF0000B5B687B6031
:104DF000984504BFFB687B60DE68002E5AD03446BD
:104E000004F134032C606B60E36A2B61236B287B15
:104E1000EB61A36CAB60032820D0236D6B61B9F10B
:104E2000050F4FF00003AB6124D085F80C90246B84
:104E30002378A52B4FF0000307D114F8010FA52804
:104E400003F10103F9D0C3F38F03B2452B840BF1B7
:104E5000010B05F1240530D07B68C7E7244B244AB9
:104E60001868A36A013010600BB102232B73FFF79F
:104E700071FED2E75EB31F4A1068864218D0FDF774
:104E8000CBFD73690193FDF7DBFD1B4A019B1068A5
:104E9000834216D019480068834212D018488342D2
:104EA0001ED0184883420FD0002B14BF01230423C7
:104EB0002B73BCE70F4A1468A2E7584603B0BDE85D
:104EC000F08F02232B73B2E704232B73AFE74FF06D
:104ED000500383F31188BFF36F8FBFF34F8FFEE74B
:104EE000B36A002B14BF022303232B739FE700BF79
:104EF0009C20002034210020942000204421002008
:104F0000782100201C210020F8B5584B584C1D6812
:104F100001351D6023688B421646054639D8554C2D
:104F2000236D002B3AD1E26B1F46002A3FD1104679
:104F3000A26A0744002A46D1104662690744002A43
:104F40004DD1104622680744002A54D14A4B1968B3
:104F50000B6810460744002B5BD1484A11680C6867
:104F600018460744002C61D145490B682046C419F6
:104F7000002B67D1434918460B680719002B6DD1E8
:104F80001846C4190EB100233360FFF7E3FD204635
:104F9000F8BD0024FFF7DEFD2046F8BD012204F134
:104FA0005001FFF711FFE26B0746002ABFD007EB65
:104FB000C700012205EB80003349FFF705FFA26A15
:104FC0000744002AB8D007EBC700012205EB800098
:104FD0002E49FFF7F9FE62690744002AB1D007EBBA
:104FE000C700012205EB80002949FFF7EDFE22688A
:104FF0000744002AAAD007EBC7001E4905EB800032
:105000000122FFF7E1FE1C4B19680B680744002BD7
:10501000A3D007EBC700022205EB8000FFF7D4FE08
:10502000164A11680C680744002C9DD007EBC70096
:1050300005EB80000222FFF7C7FE11490B68C41977
:10504000002B97D004EBC40005EB80000422FFF78F
:10505000BBFE0C490B680719002B91D007EBC7006A
:1050600005EB80000322FFF7AFFE8AE79C200020BB
:1050700060210020B820002094200020442100203E
:105080001C21002078210020F4200020E0200020B6
:10509000CC200020234B1B6810B5002B34D1224AB2
:1050A000224C136023681B6B1A68B2F1A53F03D131
:1050B0005A68B2F1A53F2BD0206821683431FEF741
:1050C000D3F81B4B1B68B3FA83F3DBB2C3F11F03A6
:1050D00003EB83039B00174AD15841B94FF05003AB
:1050E00083F31188BFF36F8FBFF34F8FFEE71A442E
:1050F00002F1080153685B6853608B4204BF5B6830
:105100005360DB68236010BD074B01221A6010BD9D
:105110009A68B2F1A53FCFD1DB68B3F1A53FCBD1FF
:10512000CFE700BF9C2000209021002034210020E8
:105130008C210020B8200020F8B50446344DFDF73E
:105140006BFC002C57D0271D3846FEF7F1F830B91C
:10515000E36A304A03EB830152F821209AB1A36A33
:105160001BB104F11800FEF7E3F82B4E2B4839462B
:10517000FEF7B6F8FDF764FC33686BB92B68244A78
:105180009C4219D0F8BD264A0120116800FA03F3A9
:1051900021EA03031360E2E7FDF73EFC214B1A68A6
:1051A00012680ABB204B4FF0FF321A60FDF748FC33
:1051B0002B68174A9C42E5D133685BB11B4B1B68D7
:1051C000EBB14FF0500383F31188BFF36F8FBFF340
:1051D0004F8FFEE7164911480968006888420CD0D5
:1051E000BDE8F840FFF756BF1A680F4BD268D26887
:1051F00052681A60DAE72C68A5E71360F8BD0D4B1A
:105200004FF080521A60BFF34F8FBFF36F8FF8BD1E
:1052100034210020B8200020982000207821002090
:105220008C21002094200020382100209C20002088
:105230006021002004ED00E070B50D4648B3214C1C
:1052400021681831FEF75AF81F4B1E682068043099
:10525000FEF76EF848B922681C4BD16A1A68012023
:1052600000FA01F122EA01021A606B1C1AD02268CE
:10527000144BAC19A64254601BD8154A1068196823
:105280000431FEF73BF8134B1A68944238BF1C6098
:1052900070BD4FF0500383F31188BFF36F8FBFF3DE
:1052A0004F8FFEE721680C480431BDE87040FEF7DF
:1052B00017B80A4A10681968BDE870400431FEF753
:1052C0001DB800BF34210020402100208C21002087
:1052D0009420002038210020782100204421002043
:1052E00010B51446D8B1124B1B6843B94FF05003A8
:1052F00083F31188BFF36F8FBFF34F8FFEE70D4B22
:105300001A681B6841F00041916103F11801FDF733
:10531000E7FF20460121BDE81040FEF7ADBF4FF08A
:10532000500383F31188BFF36F8FBFF34F8FFEE7F6
:105330009C20002034210020F8B50D461646002898
:105340002ED0244C21681831FDF7CAFF224B1F686C
:105350002068002E00F1040018BF4FF0FF35FDF764
:10536000E7FF48B922681D4BD16A1A68012000FA8C
:1053700001F122EA01021A606B1C22D03D4422682E
:10538000144B5560AF4214D8154A1068196804319F
:10539000FDF7B4FF134B1A68954238BF1D60F8BD86
:1053A0004FF0500383F31188BFF36F8FBFF34F8F1C
:1053B000FEE70D4A10681968BDE8F8400431FDF7B2
:1053C0009DBF002EDAD0216808480431BDE8F840BE
:1053D000FDF786BF34210020402100208C210020D1
:1053E0009420002038210020442100207821002032
:1053F000F8B5C368DC6834B304F118052846FDF736
:1054000097FF184B1B683BBB251D2846FDF790FFF7
:10541000154AE36A1668154801279F4003EB83038A
:10542000294600EB830047EA06051560FDF758FFA3
:105430000F4BE26A1B68DB6A9A4283BF0D4B012067
:1054400018600020F8BD4FF0500383F31188BFF3BC
:105450006F8FBFF34F8FFEE729460748FDF740FFE8
:10546000E6E700BF9C2000208C210020B82000200F
:10547000342100209021002048210020F8B51E4B47
:105480001A6842B94FF0500383F31188BFF36F8F4E
:10549000BFF34F8FFEE7C46841F0004202600CB3D7
:1054A000261DFDF745FF3046FDF742FF134AE36A2C
:1054B00017681348012505FA03FE03EB830300EB8D
:1054C000830031464EEA07061660FDF709FF0D4BD3
:1054D000E26A1B68DB6A9A4283BF0B4B28461D6059
:1054E0000020F8BD4FF0500383F31188BFF36F8F96
:1054F000BFF34F8FFEE700BF9C2000208C210020CF
:10550000B8200020342100209021002030B1084A2A
:10551000084B12681B6880E80C0070474FF050037E
:1055200083F31188BFF36F8FBFF34F8FFEE700BF88
:105530009020002040210020F8B504460D4660B3BD
:1055400011B3FDF769FA29681B484B1C02682DD07E
:105550001A4E23683768BB42636801D09A420ED264
:10556000D71AB9420BD98A1A1344316802682B60E2
:10557000002584E80600FDF763FA2846F8BD0125FA
:10558000FDF75EFA2846F8BD4FF0500383F311880B
:10559000BFF36F8FBFF34F8FFEE74FF0500383F3DE
:1055A0001188BFF36F8FBFF34F8FFEE70025FDF724
:1055B00047FA2846F8BD00BF402100209020002077
:1055C000014B01221A6070479021002000B1C06C8D
:1055D000704700BF00B1C164704700BF2DE9F041C2
:1055E00006460C4690461F46002856D00546207BAE
:1055F000AB6CE96A2A6BA360032805F134032560CC
:1056000063602161E2611FD02B6D6361052F4FF054
:105610000003A36123D02773B8F1000F10D02A6BC9
:105620001378A52B4FF0000307D112F8010FA5281E
:1056300003F10103F9D0C3F38F032384BDE8F081A4
:10564000A4F82080BDE8F081204BAA6A19680131D6
:1056500019600AB102232373FFF77CFAD4E72EB353
:105660001B4A1268964216D0FDF7D6F97769FDF706
:10567000E7F9184B1B689F4212D0174B1B689F42DB
:105680000ED0164B9F421AD0154B9F420BD0002FC5
:1056900014BF012304232373BEE70D4B1D68A6E747
:1056A00002232373B8E704232373B5E74FF05003B5
:1056B00083F31188BFF36F8FBFF34F8FFEE7B36A99
:1056C000002B14BF022303232373A5E79C20002093
:1056D0003421002094200020442100207821002043
:1056E0001C210020014B1868704700BF34210020A6
:1056F000054B1B6833B1054B1B68002B14BF002002
:105700000220704701207047982000209C20002034
:10571000F8B50446C0B1204DC36A2A68D26A9342E4
:1057200012D28269002A04DB2A68D26AC2F1050219
:1057300082611A4E626903EB830306EB83039A428C
:1057400003D02B68DB6AE362F8BD271D3846FDF7FE
:10575000EFFDF8B9E36A03EB830256F82220CAB9D9
:105760000F4A0120116800FA03F321EA03031360D2
:105770002B681568DB6AE36201249C4003EB83001D
:1057800044EA0503394606EB80001360BDE8F840A3
:10579000FDF7A6BD024AEBE734210020B820002027
:1057A0008C210020F8B50446F0B1284B1B689842C4
:1057B00008D04FF0500383F31188BFF36F8FBFF30E
:1057C0004F8FFEE7436D43B94FF0500383F31188C9
:1057D000BFF36F8FBFF34F8FFEE7C16A026D013BCE
:1057E0009142436500D00BB10020F8BD071D38463B
:1057F000FDF79EFDB8B1164D164B226DD3F800E0B3
:10580000E262012606FA02FCC2F1050002EB820206
:105810003946A0614CEA0E0705EB82001F60FDF7D8
:105820005FFD3046F8BDE26A094D02EB820355F890
:1058300023300BB1074BE0E7064B0120196800FA53
:1058400002F221EA02021A60D7E700BF34210020E9
:10585000B82000208C210020044B19681A681B68AE
:105860008869DB6AC3F10503936170473421002026
:10587000044B1A681AB11A68516D013151651868E4
:10588000704700BF342100202DE9F0412E4C064620
:105890000D46FDF7C1F823689B6D23B923680127E6
:1058A00083F85C70BDB9FDF7CBF8FDF7B5F8236858
:1058B000254A9D6D1DB1136856B96A1E9A65236805
:1058C000002283F85C20FDF7BBF82846BDE8F08194
:1058D00000229A65F3E71D4BD3F80080206804305E
:1058E000FDF726FD38B92268194BD16A1A688F4036
:1058F00022EA07071F606B1C20D045442368124A28
:105900005D60A84513D8134B186811680431FDF782
:10591000F5FC114B1A68954238BF1D600F4B4FF0D4
:1059200080521A60BFF34F8FBFF36F8FBBE70C4BF2
:10593000186811680431FDF7E1FCEFE721680948B8
:105940000431FDF7CDFCE9E734210020402100209F
:105950008C210020942000203821002004ED00E05C
:1059600044210020782100202DE9F843374C1E46C1
:1059700080460F461546FDF74FF8236893F85C30D4
:10598000022B0AD02268936D23EA080393652368EB
:105990004FF0010883F85C80E6B9FDF751F8FDF798
:1059A0003BF815B123689B6D2B602368274A93F859
:1059B0005C30012B41D013689A6D22EA07079F657E
:1059C00001252368002283F85C20FDF739F828467A
:1059D000BDE8F8831E4BD3F8009020680430FDF733
:1059E000A7FC40B922681B4BD26A196808FA02F872
:1059F00021EA08021A60731C19D04E442368134A26
:105A00005E60B1451BD8144B186811680431FDF76E
:105A100075FC124B1A68964238BF1E60104B4FF04F
:105A200080521A60BFF34F8FBFF36F8FB5E72168C5
:105A30000C480431FDF754FCF0E70025C1E70A4BA0
:105A4000186811680431FDF759FCE7E7342100209C
:105A5000402100208C2100209420002038210020AB
:105A600004ED00E07821002044210020F8B5044630
:105A70000E4617461D46C8B1FCF7CEFF0DB1A16D0D
:105A8000296094F85C5002227B1EEDB284F85C2001
:105A9000032B04D8DFE803F03632023AA665012D65
:105AA0000DD00125FCF7CCFF2846F8BD4FF0500380
:105AB00083F31188BFF36F8FBFF34F8FFEE7261D6F
:105AC0003046FDF735FC1E4AE36A17681D4805FAA3
:105AD00003FE03EB8303314600EB83004EEA070627
